{"contracts/CrowdFundingMulti.sol":{"CrowdFund":{"abi":[{"inputs":[{"internalType":"address[]","name":"_tokens","type":"address[]"}],"stateMutability":"nonpayable","type":"constructor"},{"inputs":[],"name":"campaignId","outputs":[{"internalType":"uint256","name":"","type":"uint256"}],"stateMutability":"view","type":"function"},{"inputs":[{"internalType":"uint256","name":"","type":"uint256"}],"name":"campaigns","outputs":[{"internalType":"uint256","name":"goal","type":"uint256"},{"internalType":"uint256","name":"duration","type":"uint256"},{"internalType":"uint256","name":"totalFunds","type":"uint256"},{"internalType":"uint256","name":"startTime","type":"uint256"},{"internalType":"address","name":"creator","type":"address"}],"stateMutability":"view","type":"function"},{"inputs":[{"internalType":"uint256","name":"_id","type":"uint256"}],"name":"cancelContribution","outputs":[],"stateMutability":"nonpayable","type":"function"},{"inputs":[{"internalType":"uint256","name":"_id","type":"uint256"},{"internalType":"address","name":"_token","type":"address"},{"internalType":"uint256","name":"_amount","type":"uint256"}],"name":"contribute","outputs":[],"stateMutability":"nonpayable","type":"function"},{"inputs":[{"internalType":"uint256","name":"_goal","type":"uint256"},{"internalType":"uint256","name":"_duration","type":"uint256"}],"name":"createCampaign","outputs":[],"stateMutability":"nonpayable","type":"function"},{"inputs":[{"internalType":"uint256","name":"_id","type":"uint256"}],"name":"getCampaign","outputs":[{"internalType":"uint256","name":"remainingTime","type":"uint256"},{"internalType":"uint256","name":"goal","type":"uint256"},{"internalType":"uint256","name":"totalFunds","type":"uint256"}],"stateMutability":"view","type":"function"},{"inputs":[{"internalType":"uint256","name":"_id","type":"uint256"},{"internalType":"address","name":"_contributor","type":"address"}],"name":"getContribution","outputs":[{"internalType":"uint256","name":"","type":"uint256"}],"stateMutability":"view","type":"function"},{"inputs":[{"internalType":"uint256","name":"_id","type":"uint256"}],"name":"refund","outputs":[],"stateMutability":"nonpayable","type":"function"},{"inputs":[{"internalType":"uint256","name":"_id","type":"uint256"}],"name":"withdrawFunds","outputs":[],"stateMutability":"nonpayable","type":"function"}],"devdoc":{"kind":"dev","methods":{"cancelContribution(uint256)":{"details":"cancelContribution allows anyone to cancel their contribution","params":{"_id":"the id of the campaign"}},"constructor":{"params":{"_tokens":"list of allowed token addresses"}},"contribute(uint256,address,uint256)":{"details":"contribute allows anyone to contribute to a campaign","params":{"_amount":"the amount of tokens to contribute","_id":"the id of the campaign","_token":"the address of the token to contribute"}},"createCampaign(uint256,uint256)":{"params":{"_duration":"the duration of the campaign in seconds","_goal":"amount of funds to be raised in USD"}},"getCampaign(uint256)":{"params":{"_id":"the id of the campaign"},"returns":{"goal":"the goal of the campaign (in USD)","remainingTime":"the time (in seconds) remaining for the campaign","totalFunds":"total funds (in USD) raised by the campaign"}},"getContribution(uint256,address)":{"params":{"_contributor":"the address of the contributor","_id":"the id of the campaign"}},"refund(uint256)":{"params":{"_id":"the id of the campaign"}},"withdrawFunds(uint256)":{"params":{"_id":"the id of the campaign"}}},"version":1},"evm":{"bytecode":{"linkReferences":{},"object":"60806040523480156200001157600080fd5b5060405162000cdb38038062000cdb8339810160408190526200003491620000dd565b60005b8151811015620000a25760016000808484815181106200005b576200005b620001af565b6020908102919091018101516001600160a01b03168252810191909152604001600020805460ff1916911515919091179055806200009981620001c5565b91505062000037565b5050620001ed565b634e487b7160e01b600052604160045260246000fd5b80516001600160a01b0381168114620000d857600080fd5b919050565b60006020808385031215620000f157600080fd5b82516001600160401b03808211156200010957600080fd5b818501915085601f8301126200011e57600080fd5b815181811115620001335762000133620000aa565b8060051b604051601f19603f830116810181811085821117156200015b576200015b620000aa565b6040529182528482019250838101850191888311156200017a57600080fd5b938501935b82851015620001a3576200019385620000c0565b845293850193928501926200017f565b98975050505050505050565b634e487b7160e01b600052603260045260246000fd5b600060018201620001e657634e487b7160e01b600052601160045260246000fd5b5060010190565b610ade80620001fd6000396000f3fe608060405234801561001057600080fd5b50600436106100a35760003560e01c8063368e571b116100765780638952ac1e1161005b5780638952ac1e1461019f5780638ed5b0fc146101b2578063e081dbf9146101c957600080fd5b8063368e571b1461015e5780635598f8cc1461017157600080fd5b8063141961bc146100a8578063155dd5ee146101235780632250226814610138578063278ecde11461014b575b600080fd5b6100ed6100b636600461099b565b600160208190526000918252604090912080549181015460028201546003830154600490930154919290916001600160a01b031685565b6040805195865260208601949094529284019190915260608301526001600160a01b0316608082015260a0015b60405180910390f35b61013661013136600461099b565b6101dc565b005b6101366101463660046109b4565b610345565b61013661015936600461099b565b61045f565b61013661016c36600461099b565b61062d565b61018461017f36600461099b565b6106b1565b6040805193845260208401929092529082015260600161011a565b6101366101ad3660046109f2565b6106f9565b6101bb60025481565b60405190815260200161011a565b6101bb6101d7366004610a27565b61096e565b60008181526001602081905260409091209081015460038201546102009190610a69565b4210156102545760405162461bcd60e51b815260206004820152601860248201527f43616d706169676e206973207374696c6c20616374697665000000000000000060448201526064015b60405180910390fd5b8054600282015410156102a95760405162461bcd60e51b815260206004820152600c60248201527f476f616c206e6f74206d65740000000000000000000000000000000000000000604482015260640161024b565b33600090815260058201602052604090819020546004808401546002850154935163a9059cbb60e01b81526001600160a01b03918216928101929092526024820193909352911690819063a9059cbb906044016020604051808303816000875af115801561031b573d6000803e3d6000fd5b505050506040513d601f19601f8201168201806040525081019061033f9190610a7c565b50505050565b600082116103955760405162461bcd60e51b815260206004820152601b60248201527f476f616c206d7573742062652067726561746572207468616e20300000000000604482015260640161024b565b600081116103e55760405162461bcd60e51b815260206004820152601f60248201527f4475726174696f6e206d7573742062652067726561746572207468616e203000604482015260640161024b565b600280549060006103f583610aa5565b909155505060028054600090815260016020819052604080832095909555825482528482200192909255805482528282208101829055805482528282204260039091015554815220600401805473ffffffffffffffffffffffffffffffffffffffff191633179055565b60008181526001602081905260409091209081015460038201546104839190610a69565b4210156104d25760405162461bcd60e51b815260206004820152601860248201527f43616d706169676e206973207374696c6c206163746976650000000000000000604482015260640161024b565b80546002820154106105265760405162461bcd60e51b815260206004820152600860248201527f476f616c206d6574000000000000000000000000000000000000000000000000604482015260640161024b565b336000908152600682016020526040902054806105775760405162461bcd60e51b815260206004820152600f60248201526e27379031b7b73a3934b13aba34b7b760891b604482015260640161024b565b8082600201600082825461058b9190610abe565b90915550503360008181526006840160209081526040808320839055600586019091529081902054905163a9059cbb60e01b81526004810192909252602482018390526001600160a01b031690819063a9059cbb906044016020604051808303816000875af1158015610602573d6000803e3d6000fd5b505050506040513d601f19601f820116820180604052508101906106269190610a7c565b5050505050565b6000818152600160209081526040808320338452600681019092529091205461068a5760405162461bcd60e51b815260206004820152600f60248201526e27379031b7b73a3934b13aba34b7b760891b604482015260640161024b565b3360009081526006820160205260408120546002830180549192839261058b908490610abe565b6000818152600160208190526040822090810154600382015483928392909142916106db91610a69565b6106e59190610abe565b815460029092015490969195509350915050565b600081116107495760405162461bcd60e51b815260206004820152601d60248201527f416d6f756e74206d7573742062652067726561746572207468616e2030000000604482015260640161024b565b600083815260016020526040902060048101546001600160a01b03166107b15760405162461bcd60e51b815260206004820152601760248201527f43616d706169676e20646f6573206e6f74206578697374000000000000000000604482015260640161024b565b60048101546001600160a01b0316330361080d5760405162461bcd60e51b815260206004820152601960248201527f43726561746f722063616e6e6f7420636f6e7472696275746500000000000000604482015260640161024b565b6001600160a01b03831660009081526020819052604090205460ff16151560011461087a5760405162461bcd60e51b815260206004820152600b60248201527f6e6f7420616c6c6f776564000000000000000000000000000000000000000000604482015260640161024b565b3360009081526006820160205260408120805484929061089b908490610a69565b92505081905550818160020160008282546108b69190610a69565b909155505033600081815260058301602052604090819020805473ffffffffffffffffffffffffffffffffffffffff19166001600160a01b03871690811790915590516323b872dd60e01b815260048101929092523060248301526044820184905284916323b872dd906064016020604051808303816000875af1158015610942573d6000803e3d6000fd5b505050506040513d601f19601f820116820180604052508101906109669190610a7c565b505050505050565b60008281526001602090815260408083206001600160a01b03851684526006019091529020545b92915050565b6000602082840312156109ad57600080fd5b5035919050565b600080604083850312156109c757600080fd5b50508035926020909101359150565b80356001600160a01b03811681146109ed57600080fd5b919050565b600080600060608486031215610a0757600080fd5b83359250610a17602085016109d6565b9150604084013590509250925092565b60008060408385031215610a3a57600080fd5b82359150610a4a602084016109d6565b90509250929050565b634e487b7160e01b600052601160045260246000fd5b8082018082111561099557610995610a53565b600060208284031215610a8e57600080fd5b81518015158114610a9e57600080fd5b9392505050565b600060018201610ab757610ab7610a53565b5060010190565b8181038181111561099557610995610a5356fea164736f6c6343000814000a","opcodes":"PUSH1 0x80 PUSH1 0x40 MSTORE CALLVALUE DUP1 ISZERO PUSH3 0x11 JUMPI PUSH1 0x0 DUP1 REVERT JUMPDEST POP PUSH1 0x40 MLOAD PUSH3 0xCDB CODESIZE SUB DUP1 PUSH3 0xCDB DUP4 CODECOPY DUP2 ADD PUSH1 0x40 DUP2 SWAP1 MSTORE PUSH3 0x34 SWAP2 PUSH3 0xDD JUMP JUMPDEST PUSH1 0x0 JUMPDEST DUP2 MLOAD DUP2 LT ISZERO PUSH3 0xA2 JUMPI PUSH1 0x1 PUSH1 0x0 DUP1 DUP5 DUP5 DUP2 MLOAD DUP2 LT PUSH3 0x5B JUMPI PUSH3 0x5B PUSH3 0x1AF JUMP JUMPDEST PUSH1 0x20 SWAP1 DUP2 MUL SWAP2 SWAP1 SWAP2 ADD DUP2 ADD MLOAD PUSH1 0x1 PUSH1 0x1 PUSH1 0xA0 SHL SUB AND DUP3 MSTORE DUP2 ADD SWAP2 SWAP1 SWAP2 MSTORE PUSH1 0x40 ADD PUSH1 0x0 KECCAK256 DUP1 SLOAD PUSH1 0xFF NOT AND SWAP2 ISZERO ISZERO SWAP2 SWAP1 SWAP2 OR SWAP1 SSTORE DUP1 PUSH3 0x99 DUP2 PUSH3 0x1C5 JUMP JUMPDEST SWAP2 POP POP PUSH3 0x37 JUMP JUMPDEST POP POP PUSH3 0x1ED JUMP JUMPDEST PUSH4 0x4E487B71 PUSH1 0xE0 SHL PUSH1 0x0 MSTORE PUSH1 0x41 PUSH1 0x4 MSTORE PUSH1 0x24 PUSH1 0x0 REVERT JUMPDEST DUP1 MLOAD PUSH1 0x1 PUSH1 0x1 PUSH1 0xA0 SHL SUB DUP2 AND DUP2 EQ PUSH3 0xD8 JUMPI PUSH1 0x0 DUP1 REVERT JUMPDEST SWAP2 SWAP1 POP JUMP JUMPDEST PUSH1 0x0 PUSH1 0x20 DUP1 DUP4 DUP6 SUB SLT ISZERO PUSH3 0xF1 JUMPI PUSH1 0x0 DUP1 REVERT JUMPDEST DUP3 MLOAD PUSH1 0x1 PUSH1 0x1 PUSH1 0x40 SHL SUB DUP1 DUP3 GT ISZERO PUSH3 0x109 JUMPI PUSH1 0x0 DUP1 REVERT JUMPDEST DUP2 DUP6 ADD SWAP2 POP DUP6 PUSH1 0x1F DUP4 ADD SLT PUSH3 0x11E JUMPI PUSH1 0x0 DUP1 REVERT JUMPDEST DUP2 MLOAD DUP2 DUP2 GT ISZERO PUSH3 0x133 JUMPI PUSH3 0x133 PUSH3 0xAA JUMP JUMPDEST DUP1 PUSH1 0x5 SHL PUSH1 0x40 MLOAD PUSH1 0x1F NOT PUSH1 0x3F DUP4 ADD AND DUP2 ADD DUP2 DUP2 LT DUP6 DUP3 GT OR ISZERO PUSH3 0x15B JUMPI PUSH3 0x15B PUSH3 0xAA JUMP JUMPDEST PUSH1 0x40 MSTORE SWAP2 DUP3 MSTORE DUP5 DUP3 ADD SWAP3 POP DUP4 DUP2 ADD DUP6 ADD SWAP2 DUP9 DUP4 GT ISZERO PUSH3 0x17A JUMPI PUSH1 0x0 DUP1 REVERT JUMPDEST SWAP4 DUP6 ADD SWAP4 JUMPDEST DUP3 DUP6 LT ISZERO PUSH3 0x1A3 JUMPI PUSH3 0x193 DUP6 PUSH3 0xC0 JUMP JUMPDEST DUP5 MSTORE SWAP4 DUP6 ADD SWAP4 SWAP3 DUP6 ADD SWAP3 PUSH3 0x17F JUMP JUMPDEST SWAP9 SWAP8 POP POP POP POP POP POP POP POP JUMP JUMPDEST PUSH4 0x4E487B71 PUSH1 0xE0 SHL PUSH1 0x0 MSTORE PUSH1 0x32 PUSH1 0x4 MSTORE PUSH1 0x24 PUSH1 0x0 REVERT JUMPDEST PUSH1 0x0 PUSH1 0x1 DUP3 ADD PUSH3 0x1E6 JUMPI PUSH4 0x4E487B71 PUSH1 0xE0 SHL PUSH1 0x0 MSTORE PUSH1 0x11 PUSH1 0x4 MSTORE PUSH1 0x24 PUSH1 0x0 REVERT JUMPDEST POP PUSH1 0x1 ADD SWAP1 JUMP JUMPDEST PUSH2 0xADE DUP1 PUSH3 0x1FD PUSH1 0x0 CODECOPY PUSH1 0x0 RETURN INVALID PUSH1 0x80 PUSH1 0x40 MSTORE CALLVALUE DUP1 ISZERO PUSH2 0x10 JUMPI PUSH1 0x0 DUP1 REVERT JUMPDEST POP PUSH1 0x4 CALLDATASIZE LT PUSH2 0xA3 JUMPI PUSH1 0x0 CALLDATALOAD PUSH1 0xE0 SHR DUP1 PUSH4 0x368E571B GT PUSH2 0x76 JUMPI DUP1 PUSH4 0x8952AC1E GT PUSH2 0x5B JUMPI DUP1 PUSH4 0x8952AC1E EQ PUSH2 0x19F JUMPI DUP1 PUSH4 0x8ED5B0FC EQ PUSH2 0x1B2 JUMPI DUP1 PUSH4 0xE081DBF9 EQ PUSH2 0x1C9 JUMPI PUSH1 0x0 DUP1 REVERT JUMPDEST DUP1 PUSH4 0x368E571B EQ PUSH2 0x15E JUMPI DUP1 PUSH4 0x5598F8CC EQ PUSH2 0x171 JUMPI PUSH1 0x0 DUP1 REVERT JUMPDEST DUP1 PUSH4 0x141961BC EQ PUSH2 0xA8 JUMPI DUP1 PUSH4 0x155DD5EE EQ PUSH2 0x123 JUMPI DUP1 PUSH4 0x22502268 EQ PUSH2 0x138 JUMPI DUP1 PUSH4 0x278ECDE1 EQ PUSH2 0x14B JUMPI JUMPDEST PUSH1 0x0 DUP1 REVERT JUMPDEST PUSH2 0xED PUSH2 0xB6 CALLDATASIZE PUSH1 0x4 PUSH2 0x99B JUMP JUMPDEST PUSH1 0x1 PUSH1 0x20 DUP2 SWAP1 MSTORE PUSH1 0x0 SWAP2 DUP3 MSTORE PUSH1 0x40 SWAP1 SWAP2 KECCAK256 DUP1 SLOAD SWAP2 DUP2 ADD SLOAD PUSH1 0x2 DUP3 ADD SLOAD PUSH1 0x3 DUP4 ADD SLOAD PUSH1 0x4 SWAP1 SWAP4 ADD SLOAD SWAP2 SWAP3 SWAP1 SWAP2 PUSH1 0x1 PUSH1 0x1 PUSH1 0xA0 SHL SUB AND DUP6 JUMP JUMPDEST PUSH1 0x40 DUP1 MLOAD SWAP6 DUP7 MSTORE PUSH1 0x20 DUP7 ADD SWAP5 SWAP1 SWAP5 MSTORE SWAP3 DUP5 ADD SWAP2 SWAP1 SWAP2 MSTORE PUSH1 0x60 DUP4 ADD MSTORE PUSH1 0x1 PUSH1 0x1 PUSH1 0xA0 SHL SUB AND PUSH1 0x80 DUP3 ADD MSTORE PUSH1 0xA0 ADD JUMPDEST PUSH1 0x40 MLOAD DUP1 SWAP2 SUB SWAP1 RETURN JUMPDEST PUSH2 0x136 PUSH2 0x131 CALLDATASIZE PUSH1 0x4 PUSH2 0x99B JUMP JUMPDEST PUSH2 0x1DC JUMP JUMPDEST STOP JUMPDEST PUSH2 0x136 PUSH2 0x146 CALLDATASIZE PUSH1 0x4 PUSH2 0x9B4 JUMP JUMPDEST PUSH2 0x345 JUMP JUMPDEST PUSH2 0x136 PUSH2 0x159 CALLDATASIZE PUSH1 0x4 PUSH2 0x99B JUMP JUMPDEST PUSH2 0x45F JUMP JUMPDEST PUSH2 0x136 PUSH2 0x16C CALLDATASIZE PUSH1 0x4 PUSH2 0x99B JUMP JUMPDEST PUSH2 0x62D JUMP JUMPDEST PUSH2 0x184 PUSH2 0x17F CALLDATASIZE PUSH1 0x4 PUSH2 0x99B JUMP JUMPDEST PUSH2 0x6B1 JUMP JUMPDEST PUSH1 0x40 DUP1 MLOAD SWAP4 DUP5 MSTORE PUSH1 0x20 DUP5 ADD SWAP3 SWAP1 SWAP3 MSTORE SWAP1 DUP3 ADD MSTORE PUSH1 0x60 ADD PUSH2 0x11A JUMP JUMPDEST PUSH2 0x136 PUSH2 0x1AD CALLDATASIZE PUSH1 0x4 PUSH2 0x9F2 JUMP JUMPDEST PUSH2 0x6F9 JUMP JUMPDEST PUSH2 0x1BB PUSH1 0x2 SLOAD DUP2 JUMP JUMPDEST PUSH1 0x40 MLOAD SWAP1 DUP2 MSTORE PUSH1 0x20 ADD PUSH2 0x11A JUMP JUMPDEST PUSH2 0x1BB PUSH2 0x1D7 CALLDATASIZE PUSH1 0x4 PUSH2 0xA27 JUMP JUMPDEST PUSH2 0x96E JUMP JUMPDEST PUSH1 0x0 DUP2 DUP2 MSTORE PUSH1 0x1 PUSH1 0x20 DUP2 SWAP1 MSTORE PUSH1 0x40 SWAP1 SWAP2 KECCAK256 SWAP1 DUP2 ADD SLOAD PUSH1 0x3 DUP3 ADD SLOAD PUSH2 0x200 SWAP2 SWAP1 PUSH2 0xA69 JUMP JUMPDEST TIMESTAMP LT ISZERO PUSH2 0x254 JUMPI PUSH1 0x40 MLOAD PUSH3 0x461BCD PUSH1 0xE5 SHL DUP2 MSTORE PUSH1 0x20 PUSH1 0x4 DUP3 ADD MSTORE PUSH1 0x18 PUSH1 0x24 DUP3 ADD MSTORE PUSH32 0x43616D706169676E206973207374696C6C206163746976650000000000000000 PUSH1 0x44 DUP3 ADD MSTORE PUSH1 0x64 ADD JUMPDEST PUSH1 0x40 MLOAD DUP1 SWAP2 SUB SWAP1 REVERT JUMPDEST DUP1 SLOAD PUSH1 0x2 DUP3 ADD SLOAD LT ISZERO PUSH2 0x2A9 JUMPI PUSH1 0x40 MLOAD PUSH3 0x461BCD PUSH1 0xE5 SHL DUP2 MSTORE PUSH1 0x20 PUSH1 0x4 DUP3 ADD MSTORE PUSH1 0xC PUSH1 0x24 DUP3 ADD MSTORE PUSH32 0x476F616C206E6F74206D65740000000000000000000000000000000000000000 PUSH1 0x44 DUP3 ADD MSTORE PUSH1 0x64 ADD PUSH2 0x24B JUMP JUMPDEST CALLER PUSH1 0x0 SWAP1 DUP2 MSTORE PUSH1 0x5 DUP3 ADD PUSH1 0x20 MSTORE PUSH1 0x40 SWAP1 DUP2 SWAP1 KECCAK256 SLOAD PUSH1 0x4 DUP1 DUP5 ADD SLOAD PUSH1 0x2 DUP6 ADD SLOAD SWAP4 MLOAD PUSH4 0xA9059CBB PUSH1 0xE0 SHL DUP2 MSTORE PUSH1 0x1 PUSH1 0x1 PUSH1 0xA0 SHL SUB SWAP2 DUP3 AND SWAP3 DUP2 ADD SWAP3 SWAP1 SWAP3 MSTORE PUSH1 0x24 DUP3 ADD SWAP4 SWAP1 SWAP4 MSTORE SWAP2 AND SWAP1 DUP2 SWAP1 PUSH4 0xA9059CBB SWAP1 PUSH1 0x44 ADD PUSH1 0x20 PUSH1 0x40 MLOAD DUP1 DUP4 SUB DUP2 PUSH1 0x0 DUP8 GAS CALL ISZERO DUP1 ISZERO PUSH2 0x31B JUMPI RETURNDATASIZE PUSH1 0x0 DUP1 RETURNDATACOPY RETURNDATASIZE PUSH1 0x0 REVERT JUMPDEST POP POP POP POP PUSH1 0x40 MLOAD RETURNDATASIZE PUSH1 0x1F NOT PUSH1 0x1F DUP3 ADD AND DUP3 ADD DUP1 PUSH1 0x40 MSTORE POP DUP2 ADD SWAP1 PUSH2 0x33F SWAP2 SWAP1 PUSH2 0xA7C JUMP JUMPDEST POP POP POP POP JUMP JUMPDEST PUSH1 0x0 DUP3 GT PUSH2 0x395 JUMPI PUSH1 0x40 MLOAD PUSH3 0x461BCD PUSH1 0xE5 SHL DUP2 MSTORE PUSH1 0x20 PUSH1 0x4 DUP3 ADD MSTORE PUSH1 0x1B PUSH1 0x24 DUP3 ADD MSTORE PUSH32 0x476F616C206D7573742062652067726561746572207468616E20300000000000 PUSH1 0x44 DUP3 ADD MSTORE PUSH1 0x64 ADD PUSH2 0x24B JUMP JUMPDEST PUSH1 0x0 DUP2 GT PUSH2 0x3E5 JUMPI PUSH1 0x40 MLOAD PUSH3 0x461BCD PUSH1 0xE5 SHL DUP2 MSTORE PUSH1 0x20 PUSH1 0x4 DUP3 ADD MSTORE PUSH1 0x1F PUSH1 0x24 DUP3 ADD MSTORE PUSH32 0x4475726174696F6E206D7573742062652067726561746572207468616E203000 PUSH1 0x44 DUP3 ADD MSTORE PUSH1 0x64 ADD PUSH2 0x24B JUMP JUMPDEST PUSH1 0x2 DUP1 SLOAD SWAP1 PUSH1 0x0 PUSH2 0x3F5 DUP4 PUSH2 0xAA5 JUMP JUMPDEST SWAP1 SWAP2 SSTORE POP POP PUSH1 0x2 DUP1 SLOAD PUSH1 0x0 SWAP1 DUP2 MSTORE PUSH1 0x1 PUSH1 0x20 DUP2 SWAP1 MSTORE PUSH1 0x40 DUP1 DUP4 KECCAK256 SWAP6 SWAP1 SWAP6 SSTORE DUP3 SLOAD DUP3 MSTORE DUP5 DUP3 KECCAK256 ADD SWAP3 SWAP1 SWAP3 SSTORE DUP1 SLOAD DUP3 MSTORE DUP3 DUP3 KECCAK256 DUP2 ADD DUP3 SWAP1 SSTORE DUP1 SLOAD DUP3 MSTORE DUP3 DUP3 KECCAK256 TIMESTAMP PUSH1 0x3 SWAP1 SWAP2 ADD SSTORE SLOAD DUP2 MSTORE KECCAK256 PUSH1 0x4 ADD DUP1 SLOAD PUSH20 0xFFFFFFFFFFFFFFFFFFFFFFFFFFFFFFFFFFFFFFFF NOT AND CALLER OR SWAP1 SSTORE JUMP JUMPDEST PUSH1 0x0 DUP2 DUP2 MSTORE PUSH1 0x1 PUSH1 0x20 DUP2 SWAP1 MSTORE PUSH1 0x40 SWAP1 SWAP2 KECCAK256 SWAP1 DUP2 ADD SLOAD PUSH1 0x3 DUP3 ADD SLOAD PUSH2 0x483 SWAP2 SWAP1 PUSH2 0xA69 JUMP JUMPDEST TIMESTAMP LT ISZERO PUSH2 0x4D2 JUMPI PUSH1 0x40 MLOAD PUSH3 0x461BCD PUSH1 0xE5 SHL DUP2 MSTORE PUSH1 0x20 PUSH1 0x4 DUP3 ADD MSTORE PUSH1 0x18 PUSH1 0x24 DUP3 ADD MSTORE PUSH32 0x43616D706169676E206973207374696C6C206163746976650000000000000000 PUSH1 0x44 DUP3 ADD MSTORE PUSH1 0x64 ADD PUSH2 0x24B JUMP JUMPDEST DUP1 SLOAD PUSH1 0x2 DUP3 ADD SLOAD LT PUSH2 0x526 JUMPI PUSH1 0x40 MLOAD PUSH3 0x461BCD PUSH1 0xE5 SHL DUP2 MSTORE PUSH1 0x20 PUSH1 0x4 DUP3 ADD MSTORE PUSH1 0x8 PUSH1 0x24 DUP3 ADD MSTORE PUSH32 0x476F616C206D6574000000000000000000000000000000000000000000000000 PUSH1 0x44 DUP3 ADD MSTORE PUSH1 0x64 ADD PUSH2 0x24B JUMP JUMPDEST CALLER PUSH1 0x0 SWAP1 DUP2 MSTORE PUSH1 0x6 DUP3 ADD PUSH1 0x20 MSTORE PUSH1 0x40 SWAP1 KECCAK256 SLOAD DUP1 PUSH2 0x577 JUMPI PUSH1 0x40 MLOAD PUSH3 0x461BCD PUSH1 0xE5 SHL DUP2 MSTORE PUSH1 0x20 PUSH1 0x4 DUP3 ADD MSTORE PUSH1 0xF PUSH1 0x24 DUP3 ADD MSTORE PUSH15 0x27379031B7B73A3934B13ABA34B7B7 PUSH1 0x89 SHL PUSH1 0x44 DUP3 ADD MSTORE PUSH1 0x64 ADD PUSH2 0x24B JUMP JUMPDEST DUP1 DUP3 PUSH1 0x2 ADD PUSH1 0x0 DUP3 DUP3 SLOAD PUSH2 0x58B SWAP2 SWAP1 PUSH2 0xABE JUMP JUMPDEST SWAP1 SWAP2 SSTORE POP POP CALLER PUSH1 0x0 DUP2 DUP2 MSTORE PUSH1 0x6 DUP5 ADD PUSH1 0x20 SWAP1 DUP2 MSTORE PUSH1 0x40 DUP1 DUP4 KECCAK256 DUP4 SWAP1 SSTORE PUSH1 0x5 DUP7 ADD SWAP1 SWAP2 MSTORE SWAP1 DUP2 SWAP1 KECCAK256 SLOAD SWAP1 MLOAD PUSH4 0xA9059CBB PUSH1 0xE0 SHL DUP2 MSTORE PUSH1 0x4 DUP2 ADD SWAP3 SWAP1 SWAP3 MSTORE PUSH1 0x24 DUP3 ADD DUP4 SWAP1 MSTORE PUSH1 0x1 PUSH1 0x1 PUSH1 0xA0 SHL SUB AND SWAP1 DUP2 SWAP1 PUSH4 0xA9059CBB SWAP1 PUSH1 0x44 ADD PUSH1 0x20 PUSH1 0x40 MLOAD DUP1 DUP4 SUB DUP2 PUSH1 0x0 DUP8 GAS CALL ISZERO DUP1 ISZERO PUSH2 0x602 JUMPI RETURNDATASIZE PUSH1 0x0 DUP1 RETURNDATACOPY RETURNDATASIZE PUSH1 0x0 REVERT JUMPDEST POP POP POP POP PUSH1 0x40 MLOAD RETURNDATASIZE PUSH1 0x1F NOT PUSH1 0x1F DUP3 ADD AND DUP3 ADD DUP1 PUSH1 0x40 MSTORE POP DUP2 ADD SWAP1 PUSH2 0x626 SWAP2 SWAP1 PUSH2 0xA7C JUMP JUMPDEST POP POP POP POP POP JUMP JUMPDEST PUSH1 0x0 DUP2 DUP2 MSTORE PUSH1 0x1 PUSH1 0x20 SWAP1 DUP2 MSTORE PUSH1 0x40 DUP1 DUP4 KECCAK256 CALLER DUP5 MSTORE PUSH1 0x6 DUP2 ADD SWAP1 SWAP3 MSTORE SWAP1 SWAP2 KECCAK256 SLOAD PUSH2 0x68A JUMPI PUSH1 0x40 MLOAD PUSH3 0x461BCD PUSH1 0xE5 SHL DUP2 MSTORE PUSH1 0x20 PUSH1 0x4 DUP3 ADD MSTORE PUSH1 0xF PUSH1 0x24 DUP3 ADD MSTORE PUSH15 0x27379031B7B73A3934B13ABA34B7B7 PUSH1 0x89 SHL PUSH1 0x44 DUP3 ADD MSTORE PUSH1 0x64 ADD PUSH2 0x24B JUMP JUMPDEST CALLER PUSH1 0x0 SWAP1 DUP2 MSTORE PUSH1 0x6 DUP3 ADD PUSH1 0x20 MSTORE PUSH1 0x40 DUP2 KECCAK256 SLOAD PUSH1 0x2 DUP4 ADD DUP1 SLOAD SWAP2 SWAP3 DUP4 SWAP3 PUSH2 0x58B SWAP1 DUP5 SWAP1 PUSH2 0xABE JUMP JUMPDEST PUSH1 0x0 DUP2 DUP2 MSTORE PUSH1 0x1 PUSH1 0x20 DUP2 SWAP1 MSTORE PUSH1 0x40 DUP3 KECCAK256 SWAP1 DUP2 ADD SLOAD PUSH1 0x3 DUP3 ADD SLOAD DUP4 SWAP3 DUP4 SWAP3 SWAP1 SWAP2 TIMESTAMP SWAP2 PUSH2 0x6DB SWAP2 PUSH2 0xA69 JUMP JUMPDEST PUSH2 0x6E5 SWAP2 SWAP1 PUSH2 0xABE JUMP JUMPDEST DUP2 SLOAD PUSH1 0x2 SWAP1 SWAP3 ADD SLOAD SWAP1 SWAP7 SWAP2 SWAP6 POP SWAP4 POP SWAP2 POP POP JUMP JUMPDEST PUSH1 0x0 DUP2 GT PUSH2 0x749 JUMPI PUSH1 0x40 MLOAD PUSH3 0x461BCD PUSH1 0xE5 SHL DUP2 MSTORE PUSH1 0x20 PUSH1 0x4 DUP3 ADD MSTORE PUSH1 0x1D PUSH1 0x24 DUP3 ADD MSTORE PUSH32 0x416D6F756E74206D7573742062652067726561746572207468616E2030000000 PUSH1 0x44 DUP3 ADD MSTORE PUSH1 0x64 ADD PUSH2 0x24B JUMP JUMPDEST PUSH1 0x0 DUP4 DUP2 MSTORE PUSH1 0x1 PUSH1 0x20 MSTORE PUSH1 0x40 SWAP1 KECCAK256 PUSH1 0x4 DUP2 ADD SLOAD PUSH1 0x1 PUSH1 0x1 PUSH1 0xA0 SHL SUB AND PUSH2 0x7B1 JUMPI PUSH1 0x40 MLOAD PUSH3 0x461BCD PUSH1 0xE5 SHL DUP2 MSTORE PUSH1 0x20 PUSH1 0x4 DUP3 ADD MSTORE PUSH1 0x17 PUSH1 0x24 DUP3 ADD MSTORE PUSH32 0x43616D706169676E20646F6573206E6F74206578697374000000000000000000 PUSH1 0x44 DUP3 ADD MSTORE PUSH1 0x64 ADD PUSH2 0x24B JUMP JUMPDEST PUSH1 0x4 DUP2 ADD SLOAD PUSH1 0x1 PUSH1 0x1 PUSH1 0xA0 SHL SUB AND CALLER SUB PUSH2 0x80D JUMPI PUSH1 0x40 MLOAD PUSH3 0x461BCD PUSH1 0xE5 SHL DUP2 MSTORE PUSH1 0x20 PUSH1 0x4 DUP3 ADD MSTORE PUSH1 0x19 PUSH1 0x24 DUP3 ADD MSTORE PUSH32 0x43726561746F722063616E6E6F7420636F6E7472696275746500000000000000 PUSH1 0x44 DUP3 ADD MSTORE PUSH1 0x64 ADD PUSH2 0x24B JUMP JUMPDEST PUSH1 0x1 PUSH1 0x1 PUSH1 0xA0 SHL SUB DUP4 AND PUSH1 0x0 SWAP1 DUP2 MSTORE PUSH1 0x20 DUP2 SWAP1 MSTORE PUSH1 0x40 SWAP1 KECCAK256 SLOAD PUSH1 0xFF AND ISZERO ISZERO PUSH1 0x1 EQ PUSH2 0x87A JUMPI PUSH1 0x40 MLOAD PUSH3 0x461BCD PUSH1 0xE5 SHL DUP2 MSTORE PUSH1 0x20 PUSH1 0x4 DUP3 ADD MSTORE PUSH1 0xB PUSH1 0x24 DUP3 ADD MSTORE PUSH32 0x6E6F7420616C6C6F776564000000000000000000000000000000000000000000 PUSH1 0x44 DUP3 ADD MSTORE PUSH1 0x64 ADD PUSH2 0x24B JUMP JUMPDEST CALLER PUSH1 0x0 SWAP1 DUP2 MSTORE PUSH1 0x6 DUP3 ADD PUSH1 0x20 MSTORE PUSH1 0x40 DUP2 KECCAK256 DUP1 SLOAD DUP5 SWAP3 SWAP1 PUSH2 0x89B SWAP1 DUP5 SWAP1 PUSH2 0xA69 JUMP JUMPDEST SWAP3 POP POP DUP2 SWAP1 SSTORE POP DUP2 DUP2 PUSH1 0x2 ADD PUSH1 0x0 DUP3 DUP3 SLOAD PUSH2 0x8B6 SWAP2 SWAP1 PUSH2 0xA69 JUMP JUMPDEST SWAP1 SWAP2 SSTORE POP POP CALLER PUSH1 0x0 DUP2 DUP2 MSTORE PUSH1 0x5 DUP4 ADD PUSH1 0x20 MSTORE PUSH1 0x40 SWAP1 DUP2 SWAP1 KECCAK256 DUP1 SLOAD PUSH20 0xFFFFFFFFFFFFFFFFFFFFFFFFFFFFFFFFFFFFFFFF NOT AND PUSH1 0x1 PUSH1 0x1 PUSH1 0xA0 SHL SUB DUP8 AND SWAP1 DUP2 OR SWAP1 SWAP2 SSTORE SWAP1 MLOAD PUSH4 0x23B872DD PUSH1 0xE0 SHL DUP2 MSTORE PUSH1 0x4 DUP2 ADD SWAP3 SWAP1 SWAP3 MSTORE ADDRESS PUSH1 0x24 DUP4 ADD MSTORE PUSH1 0x44 DUP3 ADD DUP5 SWAP1 MSTORE DUP5 SWAP2 PUSH4 0x23B872DD SWAP1 PUSH1 0x64 ADD PUSH1 0x20 PUSH1 0x40 MLOAD DUP1 DUP4 SUB DUP2 PUSH1 0x0 DUP8 GAS CALL ISZERO DUP1 ISZERO PUSH2 0x942 JUMPI RETURNDATASIZE PUSH1 0x0 DUP1 RETURNDATACOPY RETURNDATASIZE PUSH1 0x0 REVERT JUMPDEST POP POP POP POP PUSH1 0x40 MLOAD RETURNDATASIZE PUSH1 0x1F NOT PUSH1 0x1F DUP3 ADD AND DUP3 ADD DUP1 PUSH1 0x40 MSTORE POP DUP2 ADD SWAP1 PUSH2 0x966 SWAP2 SWAP1 PUSH2 0xA7C JUMP JUMPDEST POP POP POP POP POP POP JUMP JUMPDEST PUSH1 0x0 DUP3 DUP2 MSTORE PUSH1 0x1 PUSH1 0x20 SWAP1 DUP2 MSTORE PUSH1 0x40 DUP1 DUP4 KECCAK256 PUSH1 0x1 PUSH1 0x1 PUSH1 0xA0 SHL SUB DUP6 AND DUP5 MSTORE PUSH1 0x6 ADD SWAP1 SWAP2 MSTORE SWAP1 KECCAK256 SLOAD JUMPDEST SWAP3 SWAP2 POP POP JUMP JUMPDEST PUSH1 0x0 PUSH1 0x20 DUP3 DUP5 SUB SLT ISZERO PUSH2 0x9AD JUMPI PUSH1 0x0 DUP1 REVERT JUMPDEST POP CALLDATALOAD SWAP2 SWAP1 POP JUMP JUMPDEST PUSH1 0x0 DUP1 PUSH1 0x40 DUP4 DUP6 SUB SLT ISZERO PUSH2 0x9C7 JUMPI PUSH1 0x0 DUP1 REVERT JUMPDEST POP POP DUP1 CALLDATALOAD SWAP3 PUSH1 0x20 SWAP1 SWAP2 ADD CALLDATALOAD SWAP2 POP JUMP JUMPDEST DUP1 CALLDATALOAD PUSH1 0x1 PUSH1 0x1 PUSH1 0xA0 SHL SUB DUP2 AND DUP2 EQ PUSH2 0x9ED JUMPI PUSH1 0x0 DUP1 REVERT JUMPDEST SWAP2 SWAP1 POP JUMP JUMPDEST PUSH1 0x0 DUP1 PUSH1 0x0 PUSH1 0x60 DUP5 DUP7 SUB SLT ISZERO PUSH2 0xA07 JUMPI PUSH1 0x0 DUP1 REVERT JUMPDEST DUP4 CALLDATALOAD SWAP3 POP PUSH2 0xA17 PUSH1 0x20 DUP6 ADD PUSH2 0x9D6 JUMP JUMPDEST SWAP2 POP PUSH1 0x40 DUP5 ADD CALLDATALOAD SWAP1 POP SWAP3 POP SWAP3 POP SWAP3 JUMP JUMPDEST PUSH1 0x0 DUP1 PUSH1 0x40 DUP4 DUP6 SUB SLT ISZERO PUSH2 0xA3A JUMPI PUSH1 0x0 DUP1 REVERT JUMPDEST DUP3 CALLDATALOAD SWAP2 POP PUSH2 0xA4A PUSH1 0x20 DUP5 ADD PUSH2 0x9D6 JUMP JUMPDEST SWAP1 POP SWAP3 POP SWAP3 SWAP1 POP JUMP JUMPDEST PUSH4 0x4E487B71 PUSH1 0xE0 SHL PUSH1 0x0 MSTORE PUSH1 0x11 PUSH1 0x4 MSTORE PUSH1 0x24 PUSH1 0x0 REVERT JUMPDEST DUP1 DUP3 ADD DUP1 DUP3 GT ISZERO PUSH2 0x995 JUMPI PUSH2 0x995 PUSH2 0xA53 JUMP JUMPDEST PUSH1 0x0 PUSH1 0x20 DUP3 DUP5 SUB SLT ISZERO PUSH2 0xA8E JUMPI PUSH1 0x0 DUP1 REVERT JUMPDEST DUP2 MLOAD DUP1 ISZERO ISZERO DUP2 EQ PUSH2 0xA9E JUMPI PUSH1 0x0 DUP1 REVERT JUMPDEST SWAP4 SWAP3 POP POP POP JUMP JUMPDEST PUSH1 0x0 PUSH1 0x1 DUP3 ADD PUSH2 0xAB7 JUMPI PUSH2 0xAB7 PUSH2 0xA53 JUMP JUMPDEST POP PUSH1 0x1 ADD SWAP1 JUMP JUMPDEST DUP2 DUP2 SUB DUP2 DUP2 GT ISZERO PUSH2 0x995 JUMPI PUSH2 0x995 PUSH2 0xA53 JUMP INVALID LOG1 PUSH5 0x736F6C6343 STOP ADDMOD EQ STOP EXP "},"gasEstimates":{"creation":{"codeDepositCost":"556400","executionCost":"infinite","totalCost":"infinite"},"external":{"campaignId()":"2339","campaigns(uint256)":"11008","cancelContribution(uint256)":"infinite","contribute(uint256,address,uint256)":"infinite","createCampaign(uint256,uint256)":"130997","getCampaign(uint256)":"infinite","getContribution(uint256,address)":"2727","refund(uint256)":"infinite","withdrawFunds(uint256)":"infinite"}},"methodIdentifiers":{"campaignId()":"8ed5b0fc","campaigns(uint256)":"141961bc","cancelContribution(uint256)":"368e571b","contribute(uint256,address,uint256)":"8952ac1e","createCampaign(uint256,uint256)":"22502268","getCampaign(uint256)":"5598f8cc","getContribution(uint256,address)":"e081dbf9","refund(uint256)":"278ecde1","withdrawFunds(uint256)":"155dd5ee"}},"storageLayout":{"storage":[{"astId":84,"contract":"contracts/CrowdFundingMulti.sol:CrowdFund","label":"allowedTokens","offset":0,"slot":"0","type":"t_mapping(t_address,t_bool)"},{"astId":108,"contract":"contracts/CrowdFundingMulti.sol:CrowdFund","label":"campaigns","offset":0,"slot":"1","type":"t_mapping(t_uint256,t_struct(Campaign)103_storage)"},{"astId":110,"contract":"contracts/CrowdFundingMulti.sol:CrowdFund","label":"campaignId","offset":0,"slot":"2","type":"t_uint256"}],"types":{"t_address":{"encoding":"inplace","label":"address","numberOfBytes":"20"},"t_bool":{"encoding":"inplace","label":"bool","numberOfBytes":"1"},"t_mapping(t_address,t_address)":{"encoding":"mapping","key":"t_address","label":"mapping(address => address)","numberOfBytes":"32","value":"t_address"},"t_mapping(t_address,t_bool)":{"encoding":"mapping","key":"t_address","label":"mapping(address => bool)","numberOfBytes":"32","value":"t_bool"},"t_mapping(t_address,t_uint256)":{"encoding":"mapping","key":"t_address","label":"mapping(address => uint256)","numberOfBytes":"32","value":"t_uint256"},"t_mapping(t_uint256,t_struct(Campaign)103_storage)":{"encoding":"mapping","key":"t_uint256","label":"mapping(uint256 => struct CrowdFund.Campaign)","numberOfBytes":"32","value":"t_struct(Campaign)103_storage"},"t_struct(Campaign)103_storage":{"encoding":"inplace","label":"struct CrowdFund.Campaign","members":[{"astId":86,"contract":"contracts/CrowdFundingMulti.sol:CrowdFund","label":"goal","offset":0,"slot":"0","type":"t_uint256"},{"astId":88,"contract":"contracts/CrowdFundingMulti.sol:CrowdFund","label":"duration","offset":0,"slot":"1","type":"t_uint256"},{"astId":90,"contract":"contracts/CrowdFundingMulti.sol:CrowdFund","label":"totalFunds","offset":0,"slot":"2","type":"t_uint256"},{"astId":92,"contract":"contracts/CrowdFundingMulti.sol:CrowdFund","label":"startTime","offset":0,"slot":"3","type":"t_uint256"},{"astId":94,"contract":"contracts/CrowdFundingMulti.sol:CrowdFund","label":"creator","offset":0,"slot":"4","type":"t_address"},{"astId":98,"contract":"contracts/CrowdFundingMulti.sol:CrowdFund","label":"token","offset":0,"slot":"5","type":"t_mapping(t_address,t_address)"},{"astId":102,"contract":"contracts/CrowdFundingMulti.sol:CrowdFund","label":"contributions","offset":0,"slot":"6","type":"t_mapping(t_address,t_uint256)"}],"numberOfBytes":"224"},"t_uint256":{"encoding":"inplace","label":"uint256","numberOfBytes":"32"}}},"userdoc":{"kind":"user","methods":{"createCampaign(uint256,uint256)":{"notice":"createCampaign allows anyone to create a campaign"},"getCampaign(uint256)":{"notice":"getCampaign returns details about a campaign"},"getContribution(uint256,address)":{"notice":"getContribution returns the contribution of a contributor in USD"},"refund(uint256)":{"notice":"refund allows the contributors to get a refund if the campaign failed"},"withdrawFunds(uint256)":{"notice":"withdrawFunds allows the creator of the campaign to withdraw the funds"}},"version":1}}}}