{
  "_format": "hh-sol-artifact-1",
  "contractName": "CrowdFund",
  "sourceName": "contracts/CrowdFundingMulti.sol",
  "abi": [
    {
      "inputs": [
        {
          "internalType": "address[]",
          "name": "_tokens",
          "type": "address[]"
        }
      ],
      "stateMutability": "nonpayable",
      "type": "constructor"
    },
    {
      "inputs": [],
      "name": "campaignId",
      "outputs": [
        {
          "internalType": "uint256",
          "name": "",
          "type": "uint256"
        }
      ],
      "stateMutability": "view",
      "type": "function"
    },
    {
      "inputs": [
        {
          "internalType": "uint256",
          "name": "",
          "type": "uint256"
        }
      ],
      "name": "campaigns",
      "outputs": [
        {
          "internalType": "uint256",
          "name": "goal",
          "type": "uint256"
        },
        {
          "internalType": "uint256",
          "name": "duration",
          "type": "uint256"
        },
        {
          "internalType": "uint256",
          "name": "totalFunds",
          "type": "uint256"
        },
        {
          "internalType": "uint256",
          "name": "startTime",
          "type": "uint256"
        },
        {
          "internalType": "address",
          "name": "creator",
          "type": "address"
        }
      ],
      "stateMutability": "view",
      "type": "function"
    },
    {
      "inputs": [
        {
          "internalType": "uint256",
          "name": "_id",
          "type": "uint256"
        }
      ],
      "name": "cancelContribution",
      "outputs": [],
      "stateMutability": "nonpayable",
      "type": "function"
    },
    {
      "inputs": [
        {
          "internalType": "uint256",
          "name": "_id",
          "type": "uint256"
        },
        {
          "internalType": "address",
          "name": "_token",
          "type": "address"
        },
        {
          "internalType": "uint256",
          "name": "_amount",
          "type": "uint256"
        }
      ],
      "name": "contribute",
      "outputs": [],
      "stateMutability": "nonpayable",
      "type": "function"
    },
    {
      "inputs": [
        {
          "internalType": "uint256",
          "name": "_goal",
          "type": "uint256"
        },
        {
          "internalType": "uint256",
          "name": "_duration",
          "type": "uint256"
        }
      ],
      "name": "createCampaign",
      "outputs": [],
      "stateMutability": "nonpayable",
      "type": "function"
    },
    {
      "inputs": [
        {
          "internalType": "uint256",
          "name": "_id",
          "type": "uint256"
        }
      ],
      "name": "getCampaign",
      "outputs": [
        {
          "internalType": "uint256",
          "name": "remainingTime",
          "type": "uint256"
        },
        {
          "internalType": "uint256",
          "name": "goal",
          "type": "uint256"
        },
        {
          "internalType": "uint256",
          "name": "totalFunds",
          "type": "uint256"
        }
      ],
      "stateMutability": "view",
      "type": "function"
    },
    {
      "inputs": [
        {
          "internalType": "uint256",
          "name": "_id",
          "type": "uint256"
        },
        {
          "internalType": "address",
          "name": "_contributor",
          "type": "address"
        }
      ],
      "name": "getContribution",
      "outputs": [
        {
          "internalType": "uint256",
          "name": "",
          "type": "uint256"
        }
      ],
      "stateMutability": "view",
      "type": "function"
    },
    {
      "inputs": [
        {
          "internalType": "uint256",
          "name": "_id",
          "type": "uint256"
        }
      ],
      "name": "refund",
      "outputs": [],
      "stateMutability": "nonpayable",
      "type": "function"
    },
    {
      "inputs": [
        {
          "internalType": "uint256",
          "name": "_id",
          "type": "uint256"
        }
      ],
      "name": "withdrawFunds",
      "outputs": [],
      "stateMutability": "nonpayable",
      "type": "function"
    }
  ],
  "bytecode": "0x60806040523480156200001157600080fd5b5060405162000cdb38038062000cdb8339810160408190526200003491620000dd565b60005b8151811015620000a25760016000808484815181106200005b576200005b620001af565b6020908102919091018101516001600160a01b03168252810191909152604001600020805460ff1916911515919091179055806200009981620001c5565b91505062000037565b5050620001ed565b634e487b7160e01b600052604160045260246000fd5b80516001600160a01b0381168114620000d857600080fd5b919050565b60006020808385031215620000f157600080fd5b82516001600160401b03808211156200010957600080fd5b818501915085601f8301126200011e57600080fd5b815181811115620001335762000133620000aa565b8060051b604051601f19603f830116810181811085821117156200015b576200015b620000aa565b6040529182528482019250838101850191888311156200017a57600080fd5b938501935b82851015620001a3576200019385620000c0565b845293850193928501926200017f565b98975050505050505050565b634e487b7160e01b600052603260045260246000fd5b600060018201620001e657634e487b7160e01b600052601160045260246000fd5b5060010190565b610ade80620001fd6000396000f3fe608060405234801561001057600080fd5b50600436106100a35760003560e01c8063368e571b116100765780638952ac1e1161005b5780638952ac1e1461019f5780638ed5b0fc146101b2578063e081dbf9146101c957600080fd5b8063368e571b1461015e5780635598f8cc1461017157600080fd5b8063141961bc146100a8578063155dd5ee146101235780632250226814610138578063278ecde11461014b575b600080fd5b6100ed6100b636600461099b565b600160208190526000918252604090912080549181015460028201546003830154600490930154919290916001600160a01b031685565b6040805195865260208601949094529284019190915260608301526001600160a01b0316608082015260a0015b60405180910390f35b61013661013136600461099b565b6101dc565b005b6101366101463660046109b4565b610345565b61013661015936600461099b565b61045f565b61013661016c36600461099b565b61062d565b61018461017f36600461099b565b6106b1565b6040805193845260208401929092529082015260600161011a565b6101366101ad3660046109f2565b6106f9565b6101bb60025481565b60405190815260200161011a565b6101bb6101d7366004610a27565b61096e565b60008181526001602081905260409091209081015460038201546102009190610a69565b4210156102545760405162461bcd60e51b815260206004820152601860248201527f43616d706169676e206973207374696c6c20616374697665000000000000000060448201526064015b60405180910390fd5b8054600282015410156102a95760405162461bcd60e51b815260206004820152600c60248201527f476f616c206e6f74206d65740000000000000000000000000000000000000000604482015260640161024b565b33600090815260058201602052604090819020546004808401546002850154935163a9059cbb60e01b81526001600160a01b03918216928101929092526024820193909352911690819063a9059cbb906044016020604051808303816000875af115801561031b573d6000803e3d6000fd5b505050506040513d601f19601f8201168201806040525081019061033f9190610a7c565b50505050565b600082116103955760405162461bcd60e51b815260206004820152601b60248201527f476f616c206d7573742062652067726561746572207468616e20300000000000604482015260640161024b565b600081116103e55760405162461bcd60e51b815260206004820152601f60248201527f4475726174696f6e206d7573742062652067726561746572207468616e203000604482015260640161024b565b600280549060006103f583610aa5565b909155505060028054600090815260016020819052604080832095909555825482528482200192909255805482528282208101829055805482528282204260039091015554815220600401805473ffffffffffffffffffffffffffffffffffffffff191633179055565b60008181526001602081905260409091209081015460038201546104839190610a69565b4210156104d25760405162461bcd60e51b815260206004820152601860248201527f43616d706169676e206973207374696c6c206163746976650000000000000000604482015260640161024b565b80546002820154106105265760405162461bcd60e51b815260206004820152600860248201527f476f616c206d6574000000000000000000000000000000000000000000000000604482015260640161024b565b336000908152600682016020526040902054806105775760405162461bcd60e51b815260206004820152600f60248201526e27379031b7b73a3934b13aba34b7b760891b604482015260640161024b565b8082600201600082825461058b9190610abe565b90915550503360008181526006840160209081526040808320839055600586019091529081902054905163a9059cbb60e01b81526004810192909252602482018390526001600160a01b031690819063a9059cbb906044016020604051808303816000875af1158015610602573d6000803e3d6000fd5b505050506040513d601f19601f820116820180604052508101906106269190610a7c565b5050505050565b6000818152600160209081526040808320338452600681019092529091205461068a5760405162461bcd60e51b815260206004820152600f60248201526e27379031b7b73a3934b13aba34b7b760891b604482015260640161024b565b3360009081526006820160205260408120546002830180549192839261058b908490610abe565b6000818152600160208190526040822090810154600382015483928392909142916106db91610a69565b6106e59190610abe565b815460029092015490969195509350915050565b600081116107495760405162461bcd60e51b815260206004820152601d60248201527f416d6f756e74206d7573742062652067726561746572207468616e2030000000604482015260640161024b565b600083815260016020526040902060048101546001600160a01b03166107b15760405162461bcd60e51b815260206004820152601760248201527f43616d706169676e20646f6573206e6f74206578697374000000000000000000604482015260640161024b565b60048101546001600160a01b0316330361080d5760405162461bcd60e51b815260206004820152601960248201527f43726561746f722063616e6e6f7420636f6e7472696275746500000000000000604482015260640161024b565b6001600160a01b03831660009081526020819052604090205460ff16151560011461087a5760405162461bcd60e51b815260206004820152600b60248201527f6e6f7420616c6c6f776564000000000000000000000000000000000000000000604482015260640161024b565b3360009081526006820160205260408120805484929061089b908490610a69565b92505081905550818160020160008282546108b69190610a69565b909155505033600081815260058301602052604090819020805473ffffffffffffffffffffffffffffffffffffffff19166001600160a01b03871690811790915590516323b872dd60e01b815260048101929092523060248301526044820184905284916323b872dd906064016020604051808303816000875af1158015610942573d6000803e3d6000fd5b505050506040513d601f19601f820116820180604052508101906109669190610a7c565b505050505050565b60008281526001602090815260408083206001600160a01b03851684526006019091529020545b92915050565b6000602082840312156109ad57600080fd5b5035919050565b600080604083850312156109c757600080fd5b50508035926020909101359150565b80356001600160a01b03811681146109ed57600080fd5b919050565b600080600060608486031215610a0757600080fd5b83359250610a17602085016109d6565b9150604084013590509250925092565b60008060408385031215610a3a57600080fd5b82359150610a4a602084016109d6565b90509250929050565b634e487b7160e01b600052601160045260246000fd5b8082018082111561099557610995610a53565b600060208284031215610a8e57600080fd5b81518015158114610a9e57600080fd5b9392505050565b600060018201610ab757610ab7610a53565b5060010190565b8181038181111561099557610995610a5356fea164736f6c6343000814000a",
  "linkReferences": {},
  "deployedLinkReferences": {}
}